{
  "contractName": "Console",
  "abi": [
    {
      "constant": false,
      "inputs": [
        {
          "name": "s",
          "type": "string"
        },
        {
          "name": "x",
          "type": "bytes"
        }
      ],
      "name": "log",
      "outputs": [],
      "payable": false,
      "stateMutability": "nonpayable",
      "type": "function"
    },
    {
      "constant": false,
      "inputs": [
        {
          "name": "s",
          "type": "string"
        },
        {
          "name": "x",
          "type": "address"
        }
      ],
      "name": "log",
      "outputs": [],
      "payable": false,
      "stateMutability": "nonpayable",
      "type": "function"
    },
    {
      "constant": false,
      "inputs": [
        {
          "name": "s",
          "type": "string"
        },
        {
          "name": "x",
          "type": "bytes32"
        }
      ],
      "name": "log",
      "outputs": [],
      "payable": false,
      "stateMutability": "nonpayable",
      "type": "function"
    },
    {
      "constant": false,
      "inputs": [
        {
          "name": "s",
          "type": "string"
        },
        {
          "name": "x",
          "type": "int256"
        }
      ],
      "name": "log",
      "outputs": [],
      "payable": false,
      "stateMutability": "nonpayable",
      "type": "function"
    },
    {
      "constant": false,
      "inputs": [
        {
          "name": "s",
          "type": "string"
        },
        {
          "name": "x",
          "type": "uint256"
        }
      ],
      "name": "log",
      "outputs": [],
      "payable": false,
      "stateMutability": "nonpayable",
      "type": "function"
    },
    {
      "constant": false,
      "inputs": [
        {
          "name": "s",
          "type": "string"
        },
        {
          "name": "x",
          "type": "bool"
        }
      ],
      "name": "log",
      "outputs": [],
      "payable": false,
      "stateMutability": "nonpayable",
      "type": "function"
    },
    {
      "anonymous": false,
      "inputs": [
        {
          "indexed": false,
          "name": "",
          "type": "string"
        },
        {
          "indexed": false,
          "name": "",
          "type": "uint256"
        }
      ],
      "name": "LogUint",
      "type": "event"
    },
    {
      "anonymous": false,
      "inputs": [
        {
          "indexed": false,
          "name": "",
          "type": "string"
        },
        {
          "indexed": false,
          "name": "",
          "type": "int256"
        }
      ],
      "name": "LogInt",
      "type": "event"
    },
    {
      "anonymous": false,
      "inputs": [
        {
          "indexed": false,
          "name": "",
          "type": "string"
        },
        {
          "indexed": false,
          "name": "",
          "type": "bytes"
        }
      ],
      "name": "LogBytes",
      "type": "event"
    },
    {
      "anonymous": false,
      "inputs": [
        {
          "indexed": false,
          "name": "",
          "type": "string"
        },
        {
          "indexed": false,
          "name": "",
          "type": "bytes32"
        }
      ],
      "name": "LogBytes32",
      "type": "event"
    },
    {
      "anonymous": false,
      "inputs": [
        {
          "indexed": false,
          "name": "",
          "type": "string"
        },
        {
          "indexed": false,
          "name": "",
          "type": "address"
        }
      ],
      "name": "LogAddress",
      "type": "event"
    },
    {
      "anonymous": false,
      "inputs": [
        {
          "indexed": false,
          "name": "",
          "type": "string"
        },
        {
          "indexed": false,
          "name": "",
          "type": "bool"
        }
      ],
      "name": "LogBool",
      "type": "event"
    }
  ],
  "bytecode": "0x6060604052341561000f57600080fd5b6107f08061001e6000396000f300606060405260043610610078576000357c0100000000000000000000000000000000000000000000000000000000900463ffffffff16806323cdd8e81461007d578063319af3331461011d5780633692d61a146101995780633ca6268e14610203578063b60e72cc14610269578063c3b55635146102cf575b600080fd5b341561008857600080fd5b61011b600480803590602001908201803590602001908080601f0160208091040260200160405190810160405280939291908181526020018383808284378201915050505050509190803590602001908201803590602001908080601f01602080910402602001604051908101604052809392919081815260200183838082843782019150505050505091905050610337565b005b341561012857600080fd5b610197600480803590602001908201803590602001908080601f0160208091040260200160405190810160405280939291908181526020018383808284378201915050505050509190803573ffffffffffffffffffffffffffffffffffffffff16906020019091905050610444565b005b34156101a457600080fd5b610201600480803590602001908201803590602001908080601f0160208091040260200160405190810160405280939291908181526020018383808284378201915050505050509190803560001916906020019091905050610518565b005b341561020e57600080fd5b610267600480803590602001908201803590602001908080601f016020809104026020016040519081016040528093929190818152602001838380828437820191505050505050919080359060200190919050506105c8565b005b341561027457600080fd5b6102cd600480803590602001908201803590602001908080601f01602080910402602001604051908101604052809392919081815260200183838082843782019150505050505091908035906020019091905050610670565b005b34156102da57600080fd5b610335600480803590602001908201803590602001908080601f016020809104026020016040519081016040528093929190818152602001838380828437820191505050505050919080351515906020019091905050610718565b005b7fe8407a0209fa99ec3a7228aff140c3d3e68bd279391739c7e0b65cd406cc93b58282604051808060200180602001838103835285818151815260200191508051906020019080838360005b8381101561039e578082015181840152602081019050610383565b50505050905090810190601f1680156103cb5780820380516001836020036101000a031916815260200191505b50838103825284818151815260200191508051906020019080838360005b838110156104045780820151818401526020810190506103e9565b50505050905090810190601f1680156104315780820380516001836020036101000a031916815260200191505b5094505050505060405180910390a15050565b7f62ddffe5b5108385f7a590f100e1ee414ad9551a31f089e64e82998440785e1e828260405180806020018373ffffffffffffffffffffffffffffffffffffffff1673ffffffffffffffffffffffffffffffffffffffff168152602001828103825284818151815260200191508051906020019080838360005b838110156104d95780820151818401526020810190506104be565b50505050905090810190601f1680156105065780820380516001836020036101000a031916815260200191505b50935050505060405180910390a15050565b7f02d93529bba9d141e5e06733c52c7e6fbcb1149586adb5c24064b522ab26f1d7828260405180806020018360001916600019168152602001828103825284818151815260200191508051906020019080838360005b8381101561058957808201518184015260208101905061056e565b50505050905090810190601f1680156105b65780820380516001836020036101000a031916815260200191505b50935050505060405180910390a15050565b7f6a837ff3973aa4181e7b9f07756f8b7ee366dd85a36655d2cb42cd47f10b963882826040518080602001838152602001828103825284818151815260200191508051906020019080838360005b83811015610631578082015181840152602081019050610616565b50505050905090810190601f16801561065e5780820380516001836020036101000a031916815260200191505b50935050505060405180910390a15050565b7f941296a39ea107bde685522318a4b6c2b544904a5dd82a512748ca2cf839bef782826040518080602001838152602001828103825284818151815260200191508051906020019080838360005b838110156106d95780820151818401526020810190506106be565b50505050905090810190601f1680156107065780820380516001836020036101000a031916815260200191505b50935050505060405180910390a15050565b7f4c34c2f9a78632f29fa59aaed5514cb742fd9fbcfd7ccc2c03c85f2bbc621c478282604051808060200183151515158152602001828103825284818151815260200191508051906020019080838360005b8381101561078557808201518184015260208101905061076a565b50505050905090810190601f1680156107b25780820380516001836020036101000a031916815260200191505b50935050505060405180910390a150505600a165627a7a723058203daa0eb3b26fa145c5b2290c04ccac50bd0427ae2d3e0cafda0040b8228330210029",
  "source": "pragma solidity ^0.4.0;\n\n\ncontract Console {\n    event LogUint(string, uint);\n    function log(string s , uint x) {\n        LogUint(s, x);\n    }\n    \n    event LogInt(string, int);\n    function log(string s , int x) {\n        LogInt(s, x);\n    }\n    \n    event LogBytes(string, bytes);\n    function log(string s , bytes x) {\n        LogBytes(s, x);\n    }\n    \n    event LogBytes32(string, bytes32);\n    function log(string s , bytes32 x) {\n        LogBytes32(s, x);\n    }\n\n    event LogAddress(string, address);\n    function log(string s , address x) {\n        LogAddress(s, x);\n    }\n\n    event LogBool(string, bool);\n    function log(string s , bool x) {\n        LogBool(s, x);\n    }\n}\n\ncontract Instablock is Console {\n    Item[] public items;\n\n    struct Item {\n        bytes32 photo;\n        bool isLink;\n    }\n\n    function addItem(bytes32 _photo) public returns(bool success) {\n        Item memory item;\n        item.photo = _photo;\n        item.isLink = true;\n\n        items.push(item);\n        return true;\n    }\n\n    function getItems() public constant returns(bytes32[], bool[]) {\n        uint length = items.length;\n\n        bytes32[] memory photos = new bytes32[](length);\n        bool[] memory isLinks = new bool[](length);\n\n        for (uint i = 0; i < length; i++) {\n            photos[i] = items[i].photo;\n            isLinks[i] = items[i].isLink;\n        }\n\n        return (photos, isLinks);\n    }\n}\n",
  "sourcePath": "/Users/jeremiezarca/Projets/react-native-web3-example/blockContracts/contracts/Instablock.sol",
  "compiler": {
    "name": "solc",
    "version": "0.4.18+commit.9cf6e910.Emscripten.clang"
  },
  "schemaVersion": "1.0.1",
  "updatedAt": "2018-01-18T15:34:15.592Z"
}