{
  "contractName": "Instablock",
  "abi": [
    {
      "constant": false,
      "inputs": [],
      "name": "Time_call",
      "outputs": [
        {
          "name": "",
          "type": "uint256"
        }
      ],
      "payable": false,
      "stateMutability": "nonpayable",
      "type": "function"
    },
    {
      "constant": true,
      "inputs": [],
      "name": "getItems",
      "outputs": [
        {
          "name": "",
          "type": "bytes32[]"
        },
        {
          "name": "",
          "type": "uint256[]"
        },
        {
          "name": "",
          "type": "bool[]"
        },
        {
          "name": "",
          "type": "bool[]"
        }
      ],
      "payable": false,
      "stateMutability": "view",
      "type": "function"
    },
    {
      "constant": false,
      "inputs": [
        {
          "name": "_photo",
          "type": "bytes32"
        }
      ],
      "name": "addPhoto",
      "outputs": [
        {
          "name": "success",
          "type": "bool"
        }
      ],
      "payable": false,
      "stateMutability": "nonpayable",
      "type": "function"
    },
    {
      "constant": false,
      "inputs": [
        {
          "name": "_photo",
          "type": "bytes32"
        }
      ],
      "name": "addMeta",
      "outputs": [
        {
          "name": "success",
          "type": "bool"
        }
      ],
      "payable": false,
      "stateMutability": "nonpayable",
      "type": "function"
    },
    {
      "constant": true,
      "inputs": [
        {
          "name": "",
          "type": "uint256"
        }
      ],
      "name": "items",
      "outputs": [
        {
          "name": "isPhoto",
          "type": "bool"
        },
        {
          "name": "isMeta",
          "type": "bool"
        },
        {
          "name": "photo",
          "type": "bytes32"
        },
        {
          "name": "date",
          "type": "uint256"
        }
      ],
      "payable": false,
      "stateMutability": "view",
      "type": "function"
    }
  ],
  "bytecode": "0x6060604052341561000f57600080fd5b6108228061001e6000396000f30060606040526004361061006d576000357c0100000000000000000000000000000000000000000000000000000000900463ffffffff1680630326103014610072578063410d59cc1461009b5780637cb0b066146101dd57806387aa94af1461021c578063bfb231d21461025b575b600080fd5b341561007d57600080fd5b6100856102b7565b6040518082815260200191505060405180910390f35b34156100a657600080fd5b6100ae6102bf565b6040518080602001806020018060200180602001858103855289818151815260200191508051906020019060200280838360005b838110156100fd5780820151818401526020810190506100e2565b50505050905001858103845288818151815260200191508051906020019060200280838360005b8381101561013f578082015181840152602081019050610124565b50505050905001858103835287818151815260200191508051906020019060200280838360005b83811015610181578082015181840152602081019050610166565b50505050905001858103825286818151815260200191508051906020019060200280838360005b838110156101c35780820151818401526020810190506101a8565b505050509050019850505050505050505060405180910390f35b34156101e857600080fd5b6102026004808035600019169060200190919050506104e4565b604051808215151515815260200191505060405180910390f35b341561022757600080fd5b6102416004808035600019169060200190919050506105c6565b604051808215151515815260200191505060405180910390f35b341561026657600080fd5b61027c60048080359060200190919050506106a8565b604051808515151515815260200184151515158152602001836000191660001916815260200182815260200194505050505060405180910390f35b600042905090565b6102c7610701565b6102cf610715565b6102d7610729565b6102df610729565b60006102e9610701565b6102f1610715565b6102f9610729565b610301610729565b600080805490509550856040518059106103185750595b90808252806020026020018201604052509450856040518059106103395750595b908082528060200260200182016040525093508560405180591061035a5750595b908082528060200260200182016040525092508560405180591061037b5750595b90808252806020026020018201604052509150600090505b858110156104cc576000818154811015156103aa57fe5b90600052602060002090600302016001015485828151811015156103ca57fe5b9060200190602002019060001916908160001916815250506000818154811015156103f157fe5b906000526020600020906003020160020154848281518110151561041157fe5b906020019060200201818152505060008181548110151561042e57fe5b906000526020600020906003020160000160009054906101000a900460ff16838281518110151561045b57fe5b906020019060200201901515908115158152505060008181548110151561047e57fe5b906000526020600020906003020160000160019054906101000a900460ff1682828151811015156104ab57fe5b90602001906020020190151590811515815250508080600101915050610393565b84848484995099509950995050505050505090919293565b60006104ee61073d565b82816040019060001916908160001916815250506001816000019015159081151581525050600081602001901515908115158152505061052c6102b7565b81606001818152505060008054806001018281610549919061076d565b9160005260206000209060030201600083909190915060008201518160000160006101000a81548160ff02191690831515021790555060208201518160000160016101000a81548160ff02191690831515021790555060408201518160010190600019169055606082015181600201555050506001915050919050565b60006105d061073d565b82816040019060001916908160001916815250506001816000019015159081151581525050600081602001901515908115158152505061060e6102b7565b8160600181815250506000805480600101828161062b919061076d565b9160005260206000209060030201600083909190915060008201518160000160006101000a81548160ff02191690831515021790555060208201518160000160016101000a81548160ff02191690831515021790555060408201518160010190600019169055606082015181600201555050506001915050919050565b6000818154811015156106b757fe5b90600052602060002090600302016000915090508060000160009054906101000a900460ff16908060000160019054906101000a900460ff16908060010154908060020154905084565b602060405190810160405280600081525090565b602060405190810160405280600081525090565b602060405190810160405280600081525090565b60806040519081016040528060001515815260200160001515815260200160008019168152602001600081525090565b81548183558181151161079a57600302816003028360005260206000209182019101610799919061079f565b5b505050565b6107f391905b808211156107ef57600080820160006101000a81549060ff02191690556000820160016101000a81549060ff021916905560018201600090556002820160009055506003016107a5565b5090565b905600a165627a7a72305820ee5bfa075796f66366f406a0a2668eb5305e1a025f07213e6548e3d3786a12ed0029",
  "source": "pragma solidity ^0.4.0;\n\ncontract Instablock{\n    Item[] public items;\n\n    struct Item {\n        bool isPhoto;\n        bool isMeta;\n        bytes32 photo;\n        uint256 date;\n    }\n\n    function Time_call() returns (uint256){\n        return now;\n    }\n\n    function addPhoto(bytes32 _photo) public returns(bool success) {\n        Item memory item;\n        item.photo = _photo;\n        item.isPhoto = true;\n        item.isMeta = false;\n        item.date = Time_call();\n\n        items.push(item);\n        return true;\n    }\n\n    function addMeta(bytes32 _photo) public returns(bool success) {\n        Item memory item;\n        item.photo = _photo;\n        item.isPhoto = true;\n        item.isMeta = false;\n        item.date = Time_call();\n\n        items.push(item);\n        return true;\n    }\n\n    function getItems() public constant returns(bytes32[], uint256[], bool[], bool[]) {\n        uint length = items.length;\n\n        bytes32[] memory photos = new bytes32[](length);\n        uint256[] memory dates = new uint256[](length);\n        bool[] memory isPhotos = new bool[](length);\n        bool[] memory isMetas = new bool[](length);\n\n        for (uint i = 0; i < length; i++) {\n            photos[i] = items[i].photo;\n            dates[i] = items[i].date;\n            isPhotos[i] = items[i].isPhoto;\n            isMetas[i] = items[i].isMeta;\n        }\n\n        return (photos, dates, isPhotos, isMetas);\n    }\n}\n",
  "sourcePath": "/Users/jeremiezarca/Projets/react-native-web3-example/blockContracts/contracts/Instablock.sol",
  "compiler": {
    "name": "solc",
    "version": "0.4.18+commit.9cf6e910.Emscripten.clang"
  },
  "schemaVersion": "1.0.1",
  "updatedAt": "2018-01-25T11:21:10.802Z"
}